{
  "_format": "hh-sol-artifact-1",
  "contractName": "Duels",
  "sourceName": "contracts/Duels.sol",
  "abi": [
    {
      "inputs": [],
      "name": "InvalidInitialization",
      "type": "error"
    },
    {
      "inputs": [],
      "name": "NotInitializing",
      "type": "error"
    },
    {
      "anonymous": false,
      "inputs": [
        {
          "indexed": false,
          "internalType": "uint256",
          "name": "id",
          "type": "uint256"
        }
      ],
      "name": "Cancel",
      "type": "event"
    },
    {
      "anonymous": false,
      "inputs": [
        {
          "indexed": false,
          "internalType": "uint256",
          "name": "id",
          "type": "uint256"
        }
      ],
      "name": "Created",
      "type": "event"
    },
    {
      "anonymous": false,
      "inputs": [
        {
          "indexed": false,
          "internalType": "uint256",
          "name": "id",
          "type": "uint256"
        }
      ],
      "name": "Disagreement",
      "type": "event"
    },
    {
      "anonymous": false,
      "inputs": [
        {
          "indexed": false,
          "internalType": "uint256",
          "name": "id",
          "type": "uint256"
        }
      ],
      "name": "Draw",
      "type": "event"
    },
    {
      "anonymous": false,
      "inputs": [
        {
          "indexed": false,
          "internalType": "uint64",
          "name": "version",
          "type": "uint64"
        }
      ],
      "name": "Initialized",
      "type": "event"
    },
    {
      "anonymous": false,
      "inputs": [
        {
          "indexed": false,
          "internalType": "uint256",
          "name": "id",
          "type": "uint256"
        },
        {
          "indexed": false,
          "internalType": "address",
          "name": "player2",
          "type": "address"
        }
      ],
      "name": "Joined",
      "type": "event"
    },
    {
      "anonymous": false,
      "inputs": [
        {
          "indexed": false,
          "internalType": "uint256",
          "name": "id",
          "type": "uint256"
        }
      ],
      "name": "SlotFreed",
      "type": "event"
    },
    {
      "anonymous": false,
      "inputs": [
        {
          "indexed": false,
          "internalType": "uint256",
          "name": "id",
          "type": "uint256"
        },
        {
          "indexed": false,
          "internalType": "address",
          "name": "player2",
          "type": "address"
        }
      ],
      "name": "Start",
      "type": "event"
    },
    {
      "anonymous": false,
      "inputs": [
        {
          "indexed": false,
          "internalType": "uint256",
          "name": "id",
          "type": "uint256"
        },
        {
          "indexed": false,
          "internalType": "address",
          "name": "winner",
          "type": "address"
        }
      ],
      "name": "Victory",
      "type": "event"
    },
    {
      "inputs": [],
      "name": "arbiter",
      "outputs": [
        {
          "internalType": "address",
          "name": "",
          "type": "address"
        }
      ],
      "stateMutability": "view",
      "type": "function"
    },
    {
      "inputs": [
        {
          "internalType": "uint256",
          "name": "_gameIndex",
          "type": "uint256"
        }
      ],
      "name": "cancel",
      "outputs": [],
      "stateMutability": "nonpayable",
      "type": "function"
    },
    {
      "inputs": [],
      "name": "commissionPercent",
      "outputs": [
        {
          "internalType": "uint8",
          "name": "",
          "type": "uint8"
        }
      ],
      "stateMutability": "view",
      "type": "function"
    },
    {
      "inputs": [
        {
          "internalType": "uint256",
          "name": "_playPeriod",
          "type": "uint256"
        }
      ],
      "name": "createGame",
      "outputs": [],
      "stateMutability": "payable",
      "type": "function"
    },
    {
      "inputs": [
        {
          "internalType": "uint256",
          "name": "_gameIndex",
          "type": "uint256"
        }
      ],
      "name": "excludePlayer2",
      "outputs": [],
      "stateMutability": "nonpayable",
      "type": "function"
    },
    {
      "inputs": [
        {
          "internalType": "uint256",
          "name": "_gameIndex",
          "type": "uint256"
        },
        {
          "internalType": "address",
          "name": "_winner",
          "type": "address"
        }
      ],
      "name": "forceAppointWinner",
      "outputs": [],
      "stateMutability": "nonpayable",
      "type": "function"
    },
    {
      "inputs": [
        {
          "internalType": "uint256",
          "name": "_gameIndex",
          "type": "uint256"
        }
      ],
      "name": "forceDraw",
      "outputs": [],
      "stateMutability": "nonpayable",
      "type": "function"
    },
    {
      "inputs": [
        {
          "internalType": "uint256",
          "name": "",
          "type": "uint256"
        }
      ],
      "name": "games",
      "outputs": [
        {
          "internalType": "address",
          "name": "host",
          "type": "address"
        },
        {
          "internalType": "address",
          "name": "player2",
          "type": "address"
        },
        {
          "internalType": "uint256",
          "name": "bet",
          "type": "uint256"
        },
        {
          "internalType": "uint256",
          "name": "timeStart",
          "type": "uint256"
        },
        {
          "internalType": "uint256",
          "name": "playPeriod",
          "type": "uint256"
        },
        {
          "internalType": "bool",
          "name": "started",
          "type": "bool"
        },
        {
          "internalType": "bool",
          "name": "closed",
          "type": "bool"
        },
        {
          "internalType": "bool",
          "name": "disagreement",
          "type": "bool"
        },
        {
          "internalType": "enum Duels.ResultVote",
          "name": "hostVote",
          "type": "uint8"
        },
        {
          "internalType": "enum Duels.ResultVote",
          "name": "player2Vote",
          "type": "uint8"
        }
      ],
      "stateMutability": "view",
      "type": "function"
    },
    {
      "inputs": [
        {
          "internalType": "uint256",
          "name": "_minimalBet",
          "type": "uint256"
        },
        {
          "internalType": "uint8",
          "name": "_commissionPercent",
          "type": "uint8"
        }
      ],
      "name": "initialize",
      "outputs": [],
      "stateMutability": "nonpayable",
      "type": "function"
    },
    {
      "inputs": [
        {
          "internalType": "uint256",
          "name": "_gameIndex",
          "type": "uint256"
        }
      ],
      "name": "join",
      "outputs": [],
      "stateMutability": "payable",
      "type": "function"
    },
    {
      "inputs": [],
      "name": "minimalBet",
      "outputs": [
        {
          "internalType": "uint256",
          "name": "",
          "type": "uint256"
        }
      ],
      "stateMutability": "view",
      "type": "function"
    },
    {
      "inputs": [
        {
          "internalType": "address",
          "name": "_arbiter",
          "type": "address"
        }
      ],
      "name": "setArbiter",
      "outputs": [],
      "stateMutability": "nonpayable",
      "type": "function"
    },
    {
      "inputs": [
        {
          "internalType": "uint8",
          "name": "_commissionPercent",
          "type": "uint8"
        }
      ],
      "name": "setCommissionPercent",
      "outputs": [],
      "stateMutability": "nonpayable",
      "type": "function"
    },
    {
      "inputs": [
        {
          "internalType": "uint256",
          "name": "_minimalBet",
          "type": "uint256"
        }
      ],
      "name": "setMinimalBet",
      "outputs": [],
      "stateMutability": "nonpayable",
      "type": "function"
    },
    {
      "inputs": [
        {
          "internalType": "uint256",
          "name": "_gameIndex",
          "type": "uint256"
        }
      ],
      "name": "start",
      "outputs": [],
      "stateMutability": "nonpayable",
      "type": "function"
    },
    {
      "inputs": [
        {
          "internalType": "uint256",
          "name": "_gameIndex",
          "type": "uint256"
        },
        {
          "internalType": "enum Duels.ResultVote",
          "name": "_place",
          "type": "uint8"
        }
      ],
      "name": "voteResult",
      "outputs": [],
      "stateMutability": "nonpayable",
      "type": "function"
    }
  ],
  "bytecode": "0x608060405234801561001057600080fd5b50614054806100206000396000f3fe6080604052600436106100f35760003560e01c806348e837b91161008a57806395805dad1161005957806395805dad146102eb578063b1fefb4914610314578063df9d975f1461033d578063fe25e00a14610366576100f3565b806348e837b91461025257806377d3550b1461026e5780638cecc9c4146102995780638eefba6a146102c2576100f3565b8063358c228b116100c6578063358c228b146101ac5780633ac8858b146101d75780633d11d0951461020057806340e58ee514610229576100f3565b8063049878f3146100f8578063117a5b90146101145780631c9c088a1461015a5780632590cfdc14610183575b600080fd5b610112600480360381019061010d91906132e1565b610391565b005b34801561012057600080fd5b5061013b600480360381019061013691906132e1565b6106f6565b6040516101519a999897969594939291906133f0565b60405180910390f35b34801561016657600080fd5b50610181600480360381019061017c91906134b8565b6107db565b005b34801561018f57600080fd5b506101aa60048036038101906101a5919061350a565b6108ac565b005b3480156101b857600080fd5b506101c1611268565b6040516101ce919061354a565b60405180910390f35b3480156101e357600080fd5b506101fe60048036038101906101f991906132e1565b61126e565b005b34801561020c57600080fd5b506102276004803603810190610222919061359e565b611306565b005b34801561023557600080fd5b50610250600480360381019061024b91906132e1565b611536565b005b61026c600480360381019061026791906132e1565b6119a7565b005b34801561027a57600080fd5b50610283611c75565b60405161029091906135ed565b60405180910390f35b3480156102a557600080fd5b506102c060048036038101906102bb91906132e1565b611c88565b005b3480156102ce57600080fd5b506102e960048036038101906102e49190613608565b611f72565b005b3480156102f757600080fd5b50610312600480360381019061030d91906132e1565b612065565b005b34801561032057600080fd5b5061033b60048036038101906103369190613635565b612544565b005b34801561034957600080fd5b50610364600480360381019061035f91906132e1565b6128dc565b005b34801561037257600080fd5b5061037b612d69565b6040516103889190613675565b60405180910390f35b80600280549050116103d8576040517f08c379a00000000000000000000000000000000000000000000000000000000081526004016103cf906136ed565b60405180910390fd5b6000600282815481106103ee576103ed61370d565b5b9060005260206000209060060201604051806101400160405290816000820160009054906101000a900473ffffffffffffffffffffffffffffffffffffffff1673ffffffffffffffffffffffffffffffffffffffff1673ffffffffffffffffffffffffffffffffffffffff1681526020016001820160009054906101000a900473ffffffffffffffffffffffffffffffffffffffff1673ffffffffffffffffffffffffffffffffffffffff1673ffffffffffffffffffffffffffffffffffffffff1681526020016002820154815260200160038201548152602001600482015481526020016005820160009054906101000a900460ff161515151581526020016005820160019054906101000a900460ff161515151581526020016005820160029054906101000a900460ff161515151581526020016005820160039054906101000a900460ff16600381111561054857610547613379565b5b600381111561055a57610559613379565b5b81526020016005820160049054906101000a900460ff16600381111561058357610582613379565b5b600381111561059557610594613379565b5b815250509050600073ffffffffffffffffffffffffffffffffffffffff16816020015173ffffffffffffffffffffffffffffffffffffffff161461060e576040517f08c379a000000000000000000000000000000000000000000000000000000000815260040161060590613788565b60405180910390fd5b8060400151341015610655576040517f08c379a000000000000000000000000000000000000000000000000000000000815260040161064c906137f4565b60405180910390fd5b336002838154811061066a5761066961370d565b5b906000526020600020906006020160010160006101000a81548173ffffffffffffffffffffffffffffffffffffffff021916908373ffffffffffffffffffffffffffffffffffffffff1602179055507fc0081eeafa0d002abcd7d58d84b6e688d1526b9c3d915a282212ba08c49a17a782336040516106ea929190613814565b60405180910390a15050565b6002818154811061070657600080fd5b90600052602060002090600602016000915090508060000160009054906101000a900473ffffffffffffffffffffffffffffffffffffffff16908060010160009054906101000a900473ffffffffffffffffffffffffffffffffffffffff16908060020154908060030154908060040154908060050160009054906101000a900460ff16908060050160019054906101000a900460ff16908060050160029054906101000a900460ff16908060050160039054906101000a900460ff16908060050160049054906101000a900460ff1690508a565b60008054906101000a900473ffffffffffffffffffffffffffffffffffffffff1673ffffffffffffffffffffffffffffffffffffffff163373ffffffffffffffffffffffffffffffffffffffff1614610869576040517f08c379a000000000000000000000000000000000000000000000000000000000815260040161086090613889565b60405180910390fd5b806000806101000a81548173ffffffffffffffffffffffffffffffffffffffff021916908373ffffffffffffffffffffffffffffffffffffffff16021790555050565b81600280549050116108f3576040517f08c379a00000000000000000000000000000000000000000000000000000000081526004016108ea906136ed565b60405180910390fd5b6001600381111561090757610906613379565b5b81600381111561091a57610919613379565b5b148061094a57506002600381111561093557610934613379565b5b81600381111561094857610947613379565b5b145b80610978575060038081111561096357610962613379565b5b81600381111561097657610975613379565b5b145b6109b7576040517f08c379a00000000000000000000000000000000000000000000000000000000081526004016109ae906138f5565b60405180910390fd5b6000600283815481106109cd576109cc61370d565b5b9060005260206000209060060201604051806101400160405290816000820160009054906101000a900473ffffffffffffffffffffffffffffffffffffffff1673ffffffffffffffffffffffffffffffffffffffff1673ffffffffffffffffffffffffffffffffffffffff1681526020016001820160009054906101000a900473ffffffffffffffffffffffffffffffffffffffff1673ffffffffffffffffffffffffffffffffffffffff1673ffffffffffffffffffffffffffffffffffffffff1681526020016002820154815260200160038201548152602001600482015481526020016005820160009054906101000a900460ff161515151581526020016005820160019054906101000a900460ff161515151581526020016005820160029054906101000a900460ff161515151581526020016005820160039054906101000a900460ff166003811115610b2757610b26613379565b5b6003811115610b3957610b38613379565b5b81526020016005820160049054906101000a900460ff166003811115610b6257610b61613379565b5b6003811115610b7457610b73613379565b5b815250509050806000015173ffffffffffffffffffffffffffffffffffffffff163373ffffffffffffffffffffffffffffffffffffffff161480610be75750806020015173ffffffffffffffffffffffffffffffffffffffff163373ffffffffffffffffffffffffffffffffffffffff16145b610c26576040517f08c379a0000000000000000000000000000000000000000000000000000000008152600401610c1d90613961565b60405180910390fd5b8060a00151610c6a576040517f08c379a0000000000000000000000000000000000000000000000000000000008152600401610c61906139cd565b60405180910390fd5b8060c0015115610caf576040517f08c379a0000000000000000000000000000000000000000000000000000000008152600401610ca690613a39565b60405180910390fd5b806000015173ffffffffffffffffffffffffffffffffffffffff163373ffffffffffffffffffffffffffffffffffffffff1603610d69578160028481548110610cfb57610cfa61370d565b5b906000526020600020906006020160050160036101000a81548160ff02191690836003811115610d2e57610d2d613379565b5b0217905550818161010001906003811115610d4c57610d4b613379565b5b90816003811115610d6057610d5f613379565b5b81525050610de8565b8160028481548110610d7e57610d7d61370d565b5b906000526020600020906006020160050160046101000a81548160ff02191690836003811115610db157610db0613379565b5b0217905550818161012001906003811115610dcf57610dce613379565b5b90816003811115610de357610de2613379565b5b815250505b60006003811115610dfc57610dfb613379565b5b8161010001516003811115610e1457610e13613379565b5b14158015610e4c575060006003811115610e3157610e30613379565b5b8161012001516003811115610e4957610e48613379565b5b14155b156111135760016003811115610e6557610e64613379565b5b8161010001516003811115610e7d57610e7c613379565b5b148015610eb3575060026003811115610e9957610e98613379565b5b8161012001516003811115610eb157610eb0613379565b5b145b15610f15578060e0015115610f0157600060028481548110610ed857610ed761370d565b5b906000526020600020906006020160050160026101000a81548160ff0219169083151502179055505b610f1083828360000151612d8d565b61110e565b60026003811115610f2957610f28613379565b5b8161010001516003811115610f4157610f40613379565b5b148015610f77575060016003811115610f5d57610f5c613379565b5b8161012001516003811115610f7557610f74613379565b5b145b15610fd9578060e0015115610fc557600060028481548110610f9c57610f9b61370d565b5b906000526020600020906006020160050160026101000a81548160ff0219169083151502179055505b610fd483828360200151612d8d565b61110d565b600380811115610fec57610feb613379565b5b816101000151600381111561100457611003613379565b5b148015611039575060038081111561101f5761101e613379565b5b816101200151600381111561103757611036613379565b5b145b15611096578060e00151156110875760006002848154811061105e5761105d61370d565b5b906000526020600020906006020160050160026101000a81548160ff0219169083151502179055505b6110918382612fbc565b61110c565b6001600284815481106110ac576110ab61370d565b5b906000526020600020906006020160050160026101000a81548160ff0219169083151502179055507fb622d57107667dc076f1fc69386f451e7fe40a7ecc4d86b2debde3832a2d6cae83604051611103919061354a565b60405180910390a15b5b5b611263565b806080015181606001516111279190613a88565b4211801561119257506000600381111561114457611143613379565b5b816101000151600381111561115c5761115b613379565b5b148061119157506000600381111561117757611176613379565b5b816101200151600381111561118f5761118e613379565b5b145b5b1561126257600160038111156111ab576111aa613379565b5b8260038111156111be576111bd613379565b5b036111d3576111ce838233612d8d565b611261565b600260038111156111e7576111e6613379565b5b8260038111156111fa576111f9613379565b5b03611255576112508382836000015173ffffffffffffffffffffffffffffffffffffffff163373ffffffffffffffffffffffffffffffffffffffff161461124557836000015161124b565b83602001515b612d8d565b611260565b61125f8382612fbc565b5b5b5b5b505050565b60015481565b60008054906101000a900473ffffffffffffffffffffffffffffffffffffffff1673ffffffffffffffffffffffffffffffffffffffff163373ffffffffffffffffffffffffffffffffffffffff16146112fc576040517f08c379a00000000000000000000000000000000000000000000000000000000081526004016112f390613889565b60405180910390fd5b8060018190555050565b600061131061327e565b905060008160000160089054906101000a900460ff1615905060008260000160009054906101000a900467ffffffffffffffff1690506000808267ffffffffffffffff1614801561135e5750825b9050600060018367ffffffffffffffff16148015611393575060003073ffffffffffffffffffffffffffffffffffffffff163b145b9050811580156113a1575080155b156113d8576040517ff92ee8a900000000000000000000000000000000000000000000000000000000815260040160405180910390fd5b60018560000160006101000a81548167ffffffffffffffff021916908367ffffffffffffffff16021790555083156114285760018560000160086101000a81548160ff0219169083151502179055505b60648660ff16111561146f576040517f08c379a000000000000000000000000000000000000000000000000000000000815260040161146690613b2e565b60405180910390fd5b336000806101000a81548173ffffffffffffffffffffffffffffffffffffffff021916908373ffffffffffffffffffffffffffffffffffffffff16021790555085600060146101000a81548160ff021916908360ff16021790555086600181905550831561152d5760008560000160086101000a81548160ff0219169083151502179055507fc7f505b2f371ae2175ee4913f4499e1f2633a7b5936321eed1cdaeb6115181d260016040516115249190613ba7565b60405180910390a15b50505050505050565b806002805490501161157d576040517f08c379a0000000000000000000000000000000000000000000000000000000008152600401611574906136ed565b60405180910390fd5b6000600282815481106115935761159261370d565b5b9060005260206000209060060201604051806101400160405290816000820160009054906101000a900473ffffffffffffffffffffffffffffffffffffffff1673ffffffffffffffffffffffffffffffffffffffff1673ffffffffffffffffffffffffffffffffffffffff1681526020016001820160009054906101000a900473ffffffffffffffffffffffffffffffffffffffff1673ffffffffffffffffffffffffffffffffffffffff1673ffffffffffffffffffffffffffffffffffffffff1681526020016002820154815260200160038201548152602001600482015481526020016005820160009054906101000a900460ff161515151581526020016005820160019054906101000a900460ff161515151581526020016005820160029054906101000a900460ff161515151581526020016005820160039054906101000a900460ff1660038111156116ed576116ec613379565b5b60038111156116ff576116fe613379565b5b81526020016005820160049054906101000a900460ff16600381111561172857611727613379565b5b600381111561173a57611739613379565b5b815250509050806000015173ffffffffffffffffffffffffffffffffffffffff163373ffffffffffffffffffffffffffffffffffffffff16146117b2576040517f08c379a00000000000000000000000000000000000000000000000000000000081526004016117a990613c0e565b60405180910390fd5b8060a00151156117f7576040517f08c379a00000000000000000000000000000000000000000000000000000000081526004016117ee90613c7a565b60405180910390fd5b600073ffffffffffffffffffffffffffffffffffffffff16816020015173ffffffffffffffffffffffffffffffffffffffff16146118af576000816020015173ffffffffffffffffffffffffffffffffffffffff16826040015160405161185d90613ccb565b60006040518083038185875af1925050503d806000811461189a576040519150601f19603f3d011682016040523d82523d6000602084013e61189f565b606091505b50509050806118ad57600080fd5b505b6000816000015173ffffffffffffffffffffffffffffffffffffffff1682604001516040516118dd90613ccb565b60006040518083038185875af1925050503d806000811461191a576040519150601f19603f3d011682016040523d82523d6000602084013e61191f565b606091505b505090508061192d57600080fd5b6001600284815481106119435761194261370d565b5b906000526020600020906006020160050160016101000a81548160ff0219169083151502179055507f8bf30e7ff26833413be5f69e1d373744864d600b664204b4a2f9844a8eedb9ed8360405161199a919061354a565b60405180910390a1505050565b6001543410156119ec576040517f08c379a00000000000000000000000000000000000000000000000000000000081526004016119e390613d2c565b60405180910390fd5b60026040518061014001604052803373ffffffffffffffffffffffffffffffffffffffff168152602001600073ffffffffffffffffffffffffffffffffffffffff1681526020013481526020016000815260200183815260200160001515815260200160001515815260200160001515815260200160006003811115611a7557611a74613379565b5b815260200160006003811115611a8e57611a8d613379565b5b815250908060018154018082558091505060019003906000526020600020906006020160009091909190915060008201518160000160006101000a81548173ffffffffffffffffffffffffffffffffffffffff021916908373ffffffffffffffffffffffffffffffffffffffff16021790555060208201518160010160006101000a81548173ffffffffffffffffffffffffffffffffffffffff021916908373ffffffffffffffffffffffffffffffffffffffff16021790555060408201518160020155606082015181600301556080820151816004015560a08201518160050160006101000a81548160ff02191690831515021790555060c08201518160050160016101000a81548160ff02191690831515021790555060e08201518160050160026101000a81548160ff0219169083151502179055506101008201518160050160036101000a81548160ff02191690836003811115611bf257611bf1613379565b5b02179055506101208201518160050160046101000a81548160ff02191690836003811115611c2357611c22613379565b5b021790555050507f06acbfb32bcf8383f3b0a768b70ac9ec234ea0f2d3b9c77fa6a2de69b919aad16001600280549050611c5d9190613d4c565b604051611c6a919061354a565b60405180910390a150565b600060149054906101000a900460ff1681565b60008054906101000a900473ffffffffffffffffffffffffffffffffffffffff1673ffffffffffffffffffffffffffffffffffffffff163373ffffffffffffffffffffffffffffffffffffffff1614611d16576040517f08c379a0000000000000000000000000000000000000000000000000000000008152600401611d0d90613889565b60405180910390fd5b8060028054905011611d5d576040517f08c379a0000000000000000000000000000000000000000000000000000000008152600401611d54906136ed565b60405180910390fd5b600060028281548110611d7357611d7261370d565b5b9060005260206000209060060201604051806101400160405290816000820160009054906101000a900473ffffffffffffffffffffffffffffffffffffffff1673ffffffffffffffffffffffffffffffffffffffff1673ffffffffffffffffffffffffffffffffffffffff1681526020016001820160009054906101000a900473ffffffffffffffffffffffffffffffffffffffff1673ffffffffffffffffffffffffffffffffffffffff1673ffffffffffffffffffffffffffffffffffffffff1681526020016002820154815260200160038201548152602001600482015481526020016005820160009054906101000a900460ff161515151581526020016005820160019054906101000a900460ff161515151581526020016005820160029054906101000a900460ff161515151581526020016005820160039054906101000a900460ff166003811115611ecd57611ecc613379565b5b6003811115611edf57611ede613379565b5b81526020016005820160049054906101000a900460ff166003811115611f0857611f07613379565b5b6003811115611f1a57611f19613379565b5b8152505090508060e00151611f64576040517f08c379a0000000000000000000000000000000000000000000000000000000008152600401611f5b90613df2565b60405180910390fd5b611f6e8282612fbc565b5050565b60008054906101000a900473ffffffffffffffffffffffffffffffffffffffff1673ffffffffffffffffffffffffffffffffffffffff163373ffffffffffffffffffffffffffffffffffffffff1614612000576040517f08c379a0000000000000000000000000000000000000000000000000000000008152600401611ff790613889565b60405180910390fd5b60648160ff161115612047576040517f08c379a000000000000000000000000000000000000000000000000000000000815260040161203e90613b2e565b60405180910390fd5b80600060146101000a81548160ff021916908360ff16021790555050565b80600280549050116120ac576040517f08c379a00000000000000000000000000000000000000000000000000000000081526004016120a3906136ed565b60405180910390fd5b6000600282815481106120c2576120c161370d565b5b9060005260206000209060060201604051806101400160405290816000820160009054906101000a900473ffffffffffffffffffffffffffffffffffffffff1673ffffffffffffffffffffffffffffffffffffffff1673ffffffffffffffffffffffffffffffffffffffff1681526020016001820160009054906101000a900473ffffffffffffffffffffffffffffffffffffffff1673ffffffffffffffffffffffffffffffffffffffff1673ffffffffffffffffffffffffffffffffffffffff1681526020016002820154815260200160038201548152602001600482015481526020016005820160009054906101000a900460ff161515151581526020016005820160019054906101000a900460ff161515151581526020016005820160029054906101000a900460ff161515151581526020016005820160039054906101000a900460ff16600381111561221c5761221b613379565b5b600381111561222e5761222d613379565b5b81526020016005820160049054906101000a900460ff16600381111561225757612256613379565b5b600381111561226957612268613379565b5b815250509050806000015173ffffffffffffffffffffffffffffffffffffffff163373ffffffffffffffffffffffffffffffffffffffff16146122e1576040517f08c379a00000000000000000000000000000000000000000000000000000000081526004016122d890613c0e565b60405180910390fd5b600073ffffffffffffffffffffffffffffffffffffffff16816020015173ffffffffffffffffffffffffffffffffffffffff1603612354576040517f08c379a000000000000000000000000000000000000000000000000000000000815260040161234b90613e5e565b60405180910390fd5b60018160a00190151590811515815250504281606001818152505080600283815481106123845761238361370d565b5b906000526020600020906006020160008201518160000160006101000a81548173ffffffffffffffffffffffffffffffffffffffff021916908373ffffffffffffffffffffffffffffffffffffffff16021790555060208201518160010160006101000a81548173ffffffffffffffffffffffffffffffffffffffff021916908373ffffffffffffffffffffffffffffffffffffffff16021790555060408201518160020155606082015181600301556080820151816004015560a08201518160050160006101000a81548160ff02191690831515021790555060c08201518160050160016101000a81548160ff02191690831515021790555060e08201518160050160026101000a81548160ff0219169083151502179055506101008201518160050160036101000a81548160ff021916908360038111156124ca576124c9613379565b5b02179055506101208201518160050160046101000a81548160ff021916908360038111156124fb576124fa613379565b5b02179055509050507f734cd2a382f4a1f43ba991c09a5f645dc0929abd9f79b2c3b87ec4b9aa207cfd828260200151604051612538929190613814565b60405180910390a15050565b60008054906101000a900473ffffffffffffffffffffffffffffffffffffffff1673ffffffffffffffffffffffffffffffffffffffff163373ffffffffffffffffffffffffffffffffffffffff16146125d2576040517f08c379a00000000000000000000000000000000000000000000000000000000081526004016125c990613889565b60405180910390fd5b8160028054905011612619576040517f08c379a0000000000000000000000000000000000000000000000000000000008152600401612610906136ed565b60405180910390fd5b60006002838154811061262f5761262e61370d565b5b9060005260206000209060060201604051806101400160405290816000820160009054906101000a900473ffffffffffffffffffffffffffffffffffffffff1673ffffffffffffffffffffffffffffffffffffffff1673ffffffffffffffffffffffffffffffffffffffff1681526020016001820160009054906101000a900473ffffffffffffffffffffffffffffffffffffffff1673ffffffffffffffffffffffffffffffffffffffff1673ffffffffffffffffffffffffffffffffffffffff1681526020016002820154815260200160038201548152602001600482015481526020016005820160009054906101000a900460ff161515151581526020016005820160019054906101000a900460ff161515151581526020016005820160029054906101000a900460ff161515151581526020016005820160039054906101000a900460ff16600381111561278957612788613379565b5b600381111561279b5761279a613379565b5b81526020016005820160049054906101000a900460ff1660038111156127c4576127c3613379565b5b60038111156127d6576127d5613379565b5b8152505090508060e00151612820576040517f08c379a000000000000000000000000000000000000000000000000000000000815260040161281790613df2565b60405180910390fd5b8173ffffffffffffffffffffffffffffffffffffffff16816000015173ffffffffffffffffffffffffffffffffffffffff16148061288d57508173ffffffffffffffffffffffffffffffffffffffff16816020015173ffffffffffffffffffffffffffffffffffffffff16145b6128cc576040517f08c379a00000000000000000000000000000000000000000000000000000000081526004016128c390613ef0565b60405180910390fd5b6128d7838284612d8d565b505050565b8060028054905011612923576040517f08c379a000000000000000000000000000000000000000000000000000000000815260040161291a906136ed565b60405180910390fd5b6000600282815481106129395761293861370d565b5b9060005260206000209060060201604051806101400160405290816000820160009054906101000a900473ffffffffffffffffffffffffffffffffffffffff1673ffffffffffffffffffffffffffffffffffffffff1673ffffffffffffffffffffffffffffffffffffffff1681526020016001820160009054906101000a900473ffffffffffffffffffffffffffffffffffffffff1673ffffffffffffffffffffffffffffffffffffffff1673ffffffffffffffffffffffffffffffffffffffff1681526020016002820154815260200160038201548152602001600482015481526020016005820160009054906101000a900460ff161515151581526020016005820160019054906101000a900460ff161515151581526020016005820160029054906101000a900460ff161515151581526020016005820160039054906101000a900460ff166003811115612a9357612a92613379565b5b6003811115612aa557612aa4613379565b5b81526020016005820160049054906101000a900460ff166003811115612ace57612acd613379565b5b6003811115612ae057612adf613379565b5b815250509050806000015173ffffffffffffffffffffffffffffffffffffffff163373ffffffffffffffffffffffffffffffffffffffff161480612b535750806020015173ffffffffffffffffffffffffffffffffffffffff163373ffffffffffffffffffffffffffffffffffffffff16145b612b92576040517f08c379a0000000000000000000000000000000000000000000000000000000008152600401612b8990613961565b60405180910390fd5b600073ffffffffffffffffffffffffffffffffffffffff16816020015173ffffffffffffffffffffffffffffffffffffffff1603612c05576040517f08c379a0000000000000000000000000000000000000000000000000000000008152600401612bfc90613e5e565b60405180910390fd5b8060a0015115612c4a576040517f08c379a0000000000000000000000000000000000000000000000000000000008152600401612c4190613c7a565b60405180910390fd5b6000816020015173ffffffffffffffffffffffffffffffffffffffff168260400151604051612c7890613ccb565b60006040518083038185875af1925050503d8060008114612cb5576040519150601f19603f3d011682016040523d82523d6000602084013e612cba565b606091505b5050905080612cc857600080fd5b600060028481548110612cde57612cdd61370d565b5b906000526020600020906006020160010160006101000a81548173ffffffffffffffffffffffffffffffffffffffff021916908373ffffffffffffffffffffffffffffffffffffffff1602179055507fd1703d99eb8af4c3a70bfe083cdd5897445a23a0d9947e6dfeb31b59169ff47b83604051612d5c919061354a565b60405180910390a1505050565b60008054906101000a900473ffffffffffffffffffffffffffffffffffffffff1681565b8160c0015115612dd2576040517f08c379a0000000000000000000000000000000000000000000000000000000008152600401612dc990613f5c565b60405180910390fd5b60006064600060149054906101000a900460ff1660ff1660028560400151612dfa9190613f7c565b612e049190613f7c565b612e0e9190613fed565b905060008060009054906101000a900473ffffffffffffffffffffffffffffffffffffffff1673ffffffffffffffffffffffffffffffffffffffff1682604051612e5790613ccb565b60006040518083038185875af1925050503d8060008114612e94576040519150601f19603f3d011682016040523d82523d6000602084013e612e99565b606091505b5050905080612ea757600080fd5b60008260028660400151612ebb9190613f7c565b612ec59190613d4c565b90508373ffffffffffffffffffffffffffffffffffffffff1681604051612eeb90613ccb565b60006040518083038185875af1925050503d8060008114612f28576040519150601f19603f3d011682016040523d82523d6000602084013e612f2d565b606091505b50508092505081612f3d57600080fd5b600160028781548110612f5357612f5261370d565b5b906000526020600020906006020160050160016101000a81548160ff0219169083151502179055507fc2815c82adc4278d6e044948482e0d16acf9a6369fc96eff02ffc7e7cd5f39d08685604051612fac929190613814565b60405180910390a1505050505050565b8060c0015115613001576040517f08c379a0000000000000000000000000000000000000000000000000000000008152600401612ff890613f5c565b60405180910390fd5b60006064600060149054906101000a900460ff1660ff16600284604001516130299190613f7c565b6130339190613f7c565b61303d9190613fed565b905060008060009054906101000a900473ffffffffffffffffffffffffffffffffffffffff1673ffffffffffffffffffffffffffffffffffffffff168260405161308690613ccb565b60006040518083038185875af1925050503d80600081146130c3576040519150601f19603f3d011682016040523d82523d6000602084013e6130c8565b606091505b50509050806130d657600080fd5b600082600285604001516130ea9190613f7c565b6130f49190613d4c565b9050836020015173ffffffffffffffffffffffffffffffffffffffff1660028261311e9190613fed565b60405161312a90613ccb565b60006040518083038185875af1925050503d8060008114613167576040519150601f19603f3d011682016040523d82523d6000602084013e61316c565b606091505b5050809250508161317c57600080fd5b836000015173ffffffffffffffffffffffffffffffffffffffff166002826131a49190613fed565b6040516131b090613ccb565b60006040518083038185875af1925050503d80600081146131ed576040519150601f19603f3d011682016040523d82523d6000602084013e6131f2565b606091505b5050809250508161320257600080fd5b6001600286815481106132185761321761370d565b5b906000526020600020906006020160050160016101000a81548160ff0219169083151502179055507f3fd10e0b772395f38ab47fc59126002084ce1e04d2b65432f5c90bbd9e2339998560405161326f919061354a565b60405180910390a15050505050565b60007ff0c57e16840df040f15088dc2f81fe391c3923bec73e23a9662efc9c229c6a00905090565b600080fd5b6000819050919050565b6132be816132ab565b81146132c957600080fd5b50565b6000813590506132db816132b5565b92915050565b6000602082840312156132f7576132f66132a6565b5b6000613305848285016132cc565b91505092915050565b600073ffffffffffffffffffffffffffffffffffffffff82169050919050565b60006133398261330e565b9050919050565b6133498161332e565b82525050565b613358816132ab565b82525050565b60008115159050919050565b6133738161335e565b82525050565b7f4e487b7100000000000000000000000000000000000000000000000000000000600052602160045260246000fd5b600481106133b9576133b8613379565b5b50565b60008190506133ca826133a8565b919050565b60006133da826133bc565b9050919050565b6133ea816133cf565b82525050565b600061014082019050613406600083018d613340565b613413602083018c613340565b613420604083018b61334f565b61342d606083018a61334f565b61343a608083018961334f565b61344760a083018861336a565b61345460c083018761336a565b61346160e083018661336a565b61346f6101008301856133e1565b61347d6101208301846133e1565b9b9a5050505050505050505050565b6134958161332e565b81146134a057600080fd5b50565b6000813590506134b28161348c565b92915050565b6000602082840312156134ce576134cd6132a6565b5b60006134dc848285016134a3565b91505092915050565b600481106134f257600080fd5b50565b600081359050613504816134e5565b92915050565b60008060408385031215613521576135206132a6565b5b600061352f858286016132cc565b9250506020613540858286016134f5565b9150509250929050565b600060208201905061355f600083018461334f565b92915050565b600060ff82169050919050565b61357b81613565565b811461358657600080fd5b50565b60008135905061359881613572565b92915050565b600080604083850312156135b5576135b46132a6565b5b60006135c3858286016132cc565b92505060206135d485828601613589565b9150509250929050565b6135e781613565565b82525050565b600060208201905061360260008301846135de565b92915050565b60006020828403121561361e5761361d6132a6565b5b600061362c84828501613589565b91505092915050565b6000806040838503121561364c5761364b6132a6565b5b600061365a858286016132cc565b925050602061366b858286016134a3565b9150509250929050565b600060208201905061368a6000830184613340565b92915050565b600082825260208201905092915050565b7f47616d6520776173206e6f742063726561746564207965740000000000000000600082015250565b60006136d7601883613690565b91506136e2826136a1565b602082019050919050565b60006020820190508181036000830152613706816136ca565b9050919050565b7f4e487b7100000000000000000000000000000000000000000000000000000000600052603260045260246000fd5b7f536c6f7420697320616c72656164792074616b656e0000000000000000000000600082015250565b6000613772601583613690565b915061377d8261373c565b602082019050919050565b600060208201905081810360008301526137a181613765565b9050919050565b7f596f75722062657420616d6f756e7420697320696e73756666696369656e7400600082015250565b60006137de601f83613690565b91506137e9826137a8565b602082019050919050565b6000602082019050818103600083015261380d816137d1565b9050919050565b6000604082019050613829600083018561334f565b6138366020830184613340565b9392505050565b7f596f7520617265206e6f74206172626974657200000000000000000000000000600082015250565b6000613873601383613690565b915061387e8261383d565b602082019050919050565b600060208201905081810360008301526138a281613866565b9050919050565b7f496e76616c696420766f74652076616c75650000000000000000000000000000600082015250565b60006138df601283613690565b91506138ea826138a9565b602082019050919050565b6000602082019050818103600083015261390e816138d2565b9050919050565b7f596f7520617265206e6f7420706172746963697061746f720000000000000000600082015250565b600061394b601883613690565b915061395682613915565b602082019050919050565b6000602082019050818103600083015261397a8161393e565b9050919050565b7f47616d6520686173206e6f74206265656e207374617274656420796574000000600082015250565b60006139b7601d83613690565b91506139c282613981565b602082019050919050565b600060208201905081810360008301526139e6816139aa565b9050919050565b7f47616d652077617320636c6f7365640000000000000000000000000000000000600082015250565b6000613a23600f83613690565b9150613a2e826139ed565b602082019050919050565b60006020820190508181036000830152613a5281613a16565b9050919050565b7f4e487b7100000000000000000000000000000000000000000000000000000000600052601160045260246000fd5b6000613a93826132ab565b9150613a9e836132ab565b9250828201905080821115613ab657613ab5613a59565b5b92915050565b7f50726f63656e742063616e206e6f742062652067726561746572207468656e2060008201527f3130300000000000000000000000000000000000000000000000000000000000602082015250565b6000613b18602383613690565b9150613b2382613abc565b604082019050919050565b60006020820190508181036000830152613b4781613b0b565b9050919050565b6000819050919050565b600067ffffffffffffffff82169050919050565b6000819050919050565b6000613b91613b8c613b8784613b4e565b613b6c565b613b58565b9050919050565b613ba181613b76565b82525050565b6000602082019050613bbc6000830184613b98565b92915050565b7f596f7520617265206e6f742067616d6520686f73740000000000000000000000600082015250565b6000613bf8601583613690565b9150613c0382613bc2565b602082019050919050565b60006020820190508181036000830152613c2781613beb565b9050919050565b7f47616d652068617320616c7265616479206265656e2073746172746564000000600082015250565b6000613c64601d83613690565b9150613c6f82613c2e565b602082019050919050565b60006020820190508181036000830152613c9381613c57565b9050919050565b600081905092915050565b50565b6000613cb5600083613c9a565b9150613cc082613ca5565b600082019050919050565b6000613cd682613ca8565b9150819050919050565b7f596f75722062657420697320746f6f20736d616c6c0000000000000000000000600082015250565b6000613d16601583613690565b9150613d2182613ce0565b602082019050919050565b60006020820190508181036000830152613d4581613d09565b9050919050565b6000613d57826132ab565b9150613d62836132ab565b9250828203905081811115613d7a57613d79613a59565b5b92915050565b7f506c617965727320646964206e6f74207265616368656420612064697361677260008201527f65656d656e740000000000000000000000000000000000000000000000000000602082015250565b6000613ddc602683613690565b9150613de782613d80565b604082019050919050565b60006020820190508181036000830152613e0b81613dcf565b9050919050565b7f5365636f6e6420706c6179657220686173206e6f74206a6f696e656420796574600082015250565b6000613e48602083613690565b9150613e5382613e12565b602082019050919050565b60006020820190508181036000830152613e7781613e3b565b9050919050565b7f41646472657373206d75737420626520706c6179657220696e2074686973206760008201527f616d650000000000000000000000000000000000000000000000000000000000602082015250565b6000613eda602383613690565b9150613ee582613e7e565b604082019050919050565b60006020820190508181036000830152613f0981613ecd565b9050919050565b7f47616d652068617320616c7265616479206265656e20636c6f73656400000000600082015250565b6000613f46601c83613690565b9150613f5182613f10565b602082019050919050565b60006020820190508181036000830152613f7581613f39565b9050919050565b6000613f87826132ab565b9150613f92836132ab565b9250828202613fa0816132ab565b91508282048414831517613fb757613fb6613a59565b5b5092915050565b7f4e487b7100000000000000000000000000000000000000000000000000000000600052601260045260246000fd5b6000613ff8826132ab565b9150614003836132ab565b92508261401357614012613fbe565b5b82820490509291505056fea26469706673582212201257c85e5a6d3610ad222583d498d0047a7b4f80fa7194a2e198b114608a5ddb64736f6c63430008180033",
  "linkReferences": {},
  "deployedLinkReferences": {}
}