{
  "_format": "hh-sol-artifact-1",
  "contractName": "Duel",
  "sourceName": "contracts/Duel.sol",
  "abi": [
    {
      "inputs": [
        {
          "internalType": "address",
          "name": "_arbiter",
          "type": "address"
        },
        {
          "internalType": "uint256",
          "name": "_playPeriod",
          "type": "uint256"
        }
      ],
      "stateMutability": "payable",
      "type": "constructor"
    },
    {
      "anonymous": false,
      "inputs": [],
      "name": "Cancel",
      "type": "event"
    },
    {
      "anonymous": false,
      "inputs": [],
      "name": "Disagreement",
      "type": "event"
    },
    {
      "anonymous": false,
      "inputs": [],
      "name": "Draw",
      "type": "event"
    },
    {
      "anonymous": false,
      "inputs": [
        {
          "indexed": false,
          "internalType": "address",
          "name": "player2",
          "type": "address"
        }
      ],
      "name": "Start",
      "type": "event"
    },
    {
      "anonymous": false,
      "inputs": [
        {
          "indexed": false,
          "internalType": "address",
          "name": "winner",
          "type": "address"
        }
      ],
      "name": "Victory",
      "type": "event"
    },
    {
      "inputs": [],
      "name": "arbiter",
      "outputs": [
        {
          "internalType": "address",
          "name": "",
          "type": "address"
        }
      ],
      "stateMutability": "view",
      "type": "function"
    },
    {
      "inputs": [],
      "name": "bet",
      "outputs": [
        {
          "internalType": "uint256",
          "name": "",
          "type": "uint256"
        }
      ],
      "stateMutability": "view",
      "type": "function"
    },
    {
      "inputs": [],
      "name": "cancel",
      "outputs": [],
      "stateMutability": "nonpayable",
      "type": "function"
    },
    {
      "inputs": [],
      "name": "closed",
      "outputs": [
        {
          "internalType": "bool",
          "name": "",
          "type": "bool"
        }
      ],
      "stateMutability": "view",
      "type": "function"
    },
    {
      "inputs": [],
      "name": "disagreement",
      "outputs": [
        {
          "internalType": "bool",
          "name": "",
          "type": "bool"
        }
      ],
      "stateMutability": "view",
      "type": "function"
    },
    {
      "inputs": [],
      "name": "excludePlayer2",
      "outputs": [],
      "stateMutability": "nonpayable",
      "type": "function"
    },
    {
      "inputs": [
        {
          "internalType": "address",
          "name": "_winner",
          "type": "address"
        }
      ],
      "name": "forceAppointWinner",
      "outputs": [],
      "stateMutability": "nonpayable",
      "type": "function"
    },
    {
      "inputs": [],
      "name": "forceDraw",
      "outputs": [],
      "stateMutability": "nonpayable",
      "type": "function"
    },
    {
      "inputs": [],
      "name": "host",
      "outputs": [
        {
          "internalType": "address",
          "name": "",
          "type": "address"
        }
      ],
      "stateMutability": "view",
      "type": "function"
    },
    {
      "inputs": [],
      "name": "join",
      "outputs": [],
      "stateMutability": "payable",
      "type": "function"
    },
    {
      "inputs": [],
      "name": "playPeriod",
      "outputs": [
        {
          "internalType": "uint256",
          "name": "",
          "type": "uint256"
        }
      ],
      "stateMutability": "view",
      "type": "function"
    },
    {
      "inputs": [],
      "name": "player2",
      "outputs": [
        {
          "internalType": "address",
          "name": "",
          "type": "address"
        }
      ],
      "stateMutability": "view",
      "type": "function"
    },
    {
      "inputs": [],
      "name": "start",
      "outputs": [],
      "stateMutability": "nonpayable",
      "type": "function"
    },
    {
      "inputs": [],
      "name": "started",
      "outputs": [
        {
          "internalType": "bool",
          "name": "",
          "type": "bool"
        }
      ],
      "stateMutability": "view",
      "type": "function"
    },
    {
      "inputs": [],
      "name": "timeStart",
      "outputs": [
        {
          "internalType": "uint256",
          "name": "",
          "type": "uint256"
        }
      ],
      "stateMutability": "view",
      "type": "function"
    },
    {
      "inputs": [],
      "name": "voteForDraw",
      "outputs": [],
      "stateMutability": "nonpayable",
      "type": "function"
    },
    {
      "inputs": [
        {
          "internalType": "uint8",
          "name": "_place",
          "type": "uint8"
        }
      ],
      "name": "voteForPlace",
      "outputs": [],
      "stateMutability": "nonpayable",
      "type": "function"
    }
  ],
  "bytecode": "0x608060405260056000806101000a81548160ff021916908360ff160217905550604051620026a2380380620026a28339818101604052810190620000449190620001c7565b600034116200008a576040517f08c379a000000000000000000000000000000000000000000000000000000000815260040162000081906200026f565b60405180910390fd5b81600060016101000a81548173ffffffffffffffffffffffffffffffffffffffff021916908373ffffffffffffffffffffffffffffffffffffffff16021790555033600160006101000a81548173ffffffffffffffffffffffffffffffffffffffff021916908373ffffffffffffffffffffffffffffffffffffffff1602179055503460038190555080600581905550505062000291565b600080fd5b600073ffffffffffffffffffffffffffffffffffffffff82169050919050565b6000620001548262000127565b9050919050565b620001668162000147565b81146200017257600080fd5b50565b60008151905062000186816200015b565b92915050565b6000819050919050565b620001a1816200018c565b8114620001ad57600080fd5b50565b600081519050620001c18162000196565b92915050565b60008060408385031215620001e157620001e062000122565b5b6000620001f18582860162000175565b92505060206200020485828601620001b0565b9150509250929050565b600082825260208201905092915050565b7f596f752073686f756c642070617920796f757220626574000000000000000000600082015250565b6000620002576017836200020e565b915062000264826200021f565b602082019050919050565b600060208201905081810360008301526200028a8162000248565b9050919050565b61240180620002a16000396000f3fe6080604052600436106100fe5760003560e01c80639e0413eb11610095578063de25d2f111610064578063de25d2f114610292578063ea8a1af0146102bd578063f437bc59146102d4578063fd74d294146102ff578063fe25e00a1461032a576100fe565b80639e0413eb14610243578063b688a3631461025a578063bb32becc14610264578063be9a65551461027b576100fe565b8063597e1fb5116100d1578063597e1fb5146101ad57806359a5f12d146101d85780636817f0eb1461020357806371a452211461021a576100fe565b806311610c25146101035780631f2698ab1461012e57806320cfa26714610159578063370e223814610182575b600080fd5b34801561010f57600080fd5b50610118610355565b6040516101259190611ba2565b60405180910390f35b34801561013a57600080fd5b5061014361035b565b6040516101509190611bd8565b60405180910390f35b34801561016557600080fd5b50610180600480360381019061017b9190611c56565b61036e565b005b34801561018e57600080fd5b50610197610541565b6040516101a49190611ba2565b60405180910390f35b3480156101b957600080fd5b506101c2610547565b6040516101cf9190611bd8565b60405180910390f35b3480156101e457600080fd5b506101ed61055a565b6040516101fa9190611c92565b60405180910390f35b34801561020f57600080fd5b50610218610580565b005b34801561022657600080fd5b50610241600480360381019061023c9190611ce6565b6107cb565b005b34801561024f57600080fd5b50610258610ad8565b005b610262610bc1565b005b34801561027057600080fd5b50610279610cda565b005b34801561028757600080fd5b50610290610f82565b005b34801561029e57600080fd5b506102a7611120565b6040516102b49190611bd8565b60405180910390f35b3480156102c957600080fd5b506102d2611133565b005b3480156102e057600080fd5b506102e96113e9565b6040516102f69190611c92565b60405180910390f35b34801561030b57600080fd5b5061031461140f565b6040516103219190611ba2565b60405180910390f35b34801561033657600080fd5b5061033f611415565b60405161034c9190611c92565b60405180910390f35b60035481565b600660009054906101000a900460ff1681565b600060019054906101000a900473ffffffffffffffffffffffffffffffffffffffff1673ffffffffffffffffffffffffffffffffffffffff163373ffffffffffffffffffffffffffffffffffffffff16146103fe576040517f08c379a00000000000000000000000000000000000000000000000000000000081526004016103f590611d70565b60405180910390fd5b600660029054906101000a900460ff1661044d576040517f08c379a000000000000000000000000000000000000000000000000000000000815260040161044490611e02565b60405180910390fd5b8073ffffffffffffffffffffffffffffffffffffffff16600160009054906101000a900473ffffffffffffffffffffffffffffffffffffffff1673ffffffffffffffffffffffffffffffffffffffff1614806104f657508073ffffffffffffffffffffffffffffffffffffffff16600260009054906101000a900473ffffffffffffffffffffffffffffffffffffffff1673ffffffffffffffffffffffffffffffffffffffff16145b610535576040517f08c379a000000000000000000000000000000000000000000000000000000000815260040161052c90611e94565b60405180910390fd5b61053e8161143b565b50565b60055481565b600660019054906101000a900460ff1681565b600260009054906101000a900473ffffffffffffffffffffffffffffffffffffffff1681565b600160009054906101000a900473ffffffffffffffffffffffffffffffffffffffff1673ffffffffffffffffffffffffffffffffffffffff163373ffffffffffffffffffffffffffffffffffffffff1614806106295750600260009054906101000a900473ffffffffffffffffffffffffffffffffffffffff1673ffffffffffffffffffffffffffffffffffffffff163373ffffffffffffffffffffffffffffffffffffffff16145b610668576040517f08c379a000000000000000000000000000000000000000000000000000000000815260040161065f90611f00565b60405180910390fd5b600660009054906101000a900460ff166106b7576040517f08c379a00000000000000000000000000000000000000000000000000000000081526004016106ae90611f6c565b60405180910390fd5b6005546004546106c79190611fbb565b4210156107c057600760003373ffffffffffffffffffffffffffffffffffffffff1673ffffffffffffffffffffffffffffffffffffffff16815260200190815260200160002060009054906101000a900460ff161561075b576040517f08c379a00000000000000000000000000000000000000000000000000000000081526004016107529061203b565b60405180910390fd5b6001600760003373ffffffffffffffffffffffffffffffffffffffff1673ffffffffffffffffffffffffffffffffffffffff16815260200190815260200160002060006101000a81548160ff0219169083151502179055506107bb6115c5565b6107c9565b6107c86116bb565b5b565b600160009054906101000a900473ffffffffffffffffffffffffffffffffffffffff1673ffffffffffffffffffffffffffffffffffffffff163373ffffffffffffffffffffffffffffffffffffffff1614806108745750600260009054906101000a900473ffffffffffffffffffffffffffffffffffffffff1673ffffffffffffffffffffffffffffffffffffffff163373ffffffffffffffffffffffffffffffffffffffff16145b6108b3576040517f08c379a00000000000000000000000000000000000000000000000000000000081526004016108aa90611f00565b60405180910390fd5b600660009054906101000a900460ff16610902576040517f08c379a00000000000000000000000000000000000000000000000000000000081526004016108f990611f6c565b60405180910390fd5b60018160ff161480610917575060028160ff16145b610956576040517f08c379a000000000000000000000000000000000000000000000000000000000815260040161094d906120a7565b60405180910390fd5b80600860003373ffffffffffffffffffffffffffffffffffffffff1673ffffffffffffffffffffffffffffffffffffffff16815260200190815260200160002060006101000a81548160ff021916908360ff1602179055506005546004546109be9190611fbb565b421015610acc57600060086000600160009054906101000a900473ffffffffffffffffffffffffffffffffffffffff1673ffffffffffffffffffffffffffffffffffffffff1673ffffffffffffffffffffffffffffffffffffffff16815260200190815260200160002060009054906101000a900460ff1660ff1614158015610ab95750600060086000600260009054906101000a900473ffffffffffffffffffffffffffffffffffffffff1673ffffffffffffffffffffffffffffffffffffffff1673ffffffffffffffffffffffffffffffffffffffff16815260200190815260200160002060009054906101000a900460ff1660ff1614155b15610ac757610ac6611911565b5b610ad5565b610ad4611911565b5b50565b600060019054906101000a900473ffffffffffffffffffffffffffffffffffffffff1673ffffffffffffffffffffffffffffffffffffffff163373ffffffffffffffffffffffffffffffffffffffff1614610b68576040517f08c379a0000000000000000000000000000000000000000000000000000000008152600401610b5f90611d70565b60405180910390fd5b600660029054906101000a900460ff16610bb7576040517f08c379a0000000000000000000000000000000000000000000000000000000008152600401610bae90611e02565b60405180910390fd5b610bbf6116bb565b565b600073ffffffffffffffffffffffffffffffffffffffff16600260009054906101000a900473ffffffffffffffffffffffffffffffffffffffff1673ffffffffffffffffffffffffffffffffffffffff1614610c52576040517f08c379a0000000000000000000000000000000000000000000000000000000008152600401610c4990612113565b60405180910390fd5b600354341015610c97576040517f08c379a0000000000000000000000000000000000000000000000000000000008152600401610c8e9061217f565b60405180910390fd5b33600260006101000a81548173ffffffffffffffffffffffffffffffffffffffff021916908373ffffffffffffffffffffffffffffffffffffffff160217905550565b600160009054906101000a900473ffffffffffffffffffffffffffffffffffffffff1673ffffffffffffffffffffffffffffffffffffffff163373ffffffffffffffffffffffffffffffffffffffff161480610d835750600260009054906101000a900473ffffffffffffffffffffffffffffffffffffffff1673ffffffffffffffffffffffffffffffffffffffff163373ffffffffffffffffffffffffffffffffffffffff16145b610dc2576040517f08c379a0000000000000000000000000000000000000000000000000000000008152600401610db990611f00565b60405180910390fd5b600073ffffffffffffffffffffffffffffffffffffffff16600260009054906101000a900473ffffffffffffffffffffffffffffffffffffffff1673ffffffffffffffffffffffffffffffffffffffff1603610e53576040517f08c379a0000000000000000000000000000000000000000000000000000000008152600401610e4a906121eb565b60405180910390fd5b600660009054906101000a900460ff1615610ea3576040517f08c379a0000000000000000000000000000000000000000000000000000000008152600401610e9a90612257565b60405180910390fd5b6000600260009054906101000a900473ffffffffffffffffffffffffffffffffffffffff1673ffffffffffffffffffffffffffffffffffffffff16600354604051610eed906122a8565b60006040518083038185875af1925050503d8060008114610f2a576040519150601f19603f3d011682016040523d82523d6000602084013e610f2f565b606091505b5050905080610f3d57600080fd5b6000600260006101000a81548173ffffffffffffffffffffffffffffffffffffffff021916908373ffffffffffffffffffffffffffffffffffffffff16021790555050565b600160009054906101000a900473ffffffffffffffffffffffffffffffffffffffff1673ffffffffffffffffffffffffffffffffffffffff163373ffffffffffffffffffffffffffffffffffffffff1614611012576040517f08c379a000000000000000000000000000000000000000000000000000000000815260040161100990612309565b60405180910390fd5b600073ffffffffffffffffffffffffffffffffffffffff16600260009054906101000a900473ffffffffffffffffffffffffffffffffffffffff1673ffffffffffffffffffffffffffffffffffffffff16036110a3576040517f08c379a000000000000000000000000000000000000000000000000000000000815260040161109a906121eb565b60405180910390fd5b6001600660006101000a81548160ff021916908315150217905550426004819055507f84d0447ca38875fa61115673259a210915bc1dd53a3c112d6f0790f15956a965600260009054906101000a900473ffffffffffffffffffffffffffffffffffffffff166040516111169190611c92565b60405180910390a1565b600660029054906101000a900460ff1681565b600160009054906101000a900473ffffffffffffffffffffffffffffffffffffffff1673ffffffffffffffffffffffffffffffffffffffff163373ffffffffffffffffffffffffffffffffffffffff16146111c3576040517f08c379a00000000000000000000000000000000000000000000000000000000081526004016111ba90612309565b60405180910390fd5b600660009054906101000a900460ff1615611213576040517f08c379a000000000000000000000000000000000000000000000000000000000815260040161120a90612257565b60405180910390fd5b600073ffffffffffffffffffffffffffffffffffffffff16600260009054906101000a900473ffffffffffffffffffffffffffffffffffffffff1673ffffffffffffffffffffffffffffffffffffffff1614611305576000600260009054906101000a900473ffffffffffffffffffffffffffffffffffffffff1673ffffffffffffffffffffffffffffffffffffffff166003546040516112b3906122a8565b60006040518083038185875af1925050503d80600081146112f0576040519150601f19603f3d011682016040523d82523d6000602084013e6112f5565b606091505b505090508061130357600080fd5b505b6000600160009054906101000a900473ffffffffffffffffffffffffffffffffffffffff1673ffffffffffffffffffffffffffffffffffffffff1660035460405161134f906122a8565b60006040518083038185875af1925050503d806000811461138c576040519150601f19603f3d011682016040523d82523d6000602084013e611391565b606091505b505090508061139f57600080fd5b6001600660016101000a81548160ff0219169083151502179055507f4aa8e773783771612c47fa512db50b9316d0863fd83c45829adfe92833d7d68b60405160405180910390a150565b600160009054906101000a900473ffffffffffffffffffffffffffffffffffffffff1681565b60045481565b600060019054906101000a900473ffffffffffffffffffffffffffffffffffffffff1681565b60008060019054906101000a900473ffffffffffffffffffffffffffffffffffffffff1673ffffffffffffffffffffffffffffffffffffffff16606460008054906101000a900460ff1660ff16476114939190612329565b61149d919061239a565b6040516114a9906122a8565b60006040518083038185875af1925050503d80600081146114e6576040519150601f19603f3d011682016040523d82523d6000602084013e6114eb565b606091505b50509050806114f957600080fd5b8173ffffffffffffffffffffffffffffffffffffffff164760405161151d906122a8565b60006040518083038185875af1925050503d806000811461155a576040519150601f19603f3d011682016040523d82523d6000602084013e61155f565b606091505b5050809150508061156f57600080fd5b6001600660016101000a81548160ff0219169083151502179055507f9d3f42cccda3cee7200a07d96935a6631686cd4882fc57aa5868b0f15846946c826040516115b99190611c92565b60405180910390a15050565b60076000600160009054906101000a900473ffffffffffffffffffffffffffffffffffffffff1673ffffffffffffffffffffffffffffffffffffffff1673ffffffffffffffffffffffffffffffffffffffff16815260200190815260200160002060009054906101000a900460ff1680156116ab575060076000600260009054906101000a900473ffffffffffffffffffffffffffffffffffffffff1673ffffffffffffffffffffffffffffffffffffffff1673ffffffffffffffffffffffffffffffffffffffff16815260200190815260200160002060009054906101000a900460ff165b156116b9576116b86116bb565b5b565b60008060019054906101000a900473ffffffffffffffffffffffffffffffffffffffff1673ffffffffffffffffffffffffffffffffffffffff16606460008054906101000a900460ff1660ff16476117139190612329565b61171d919061239a565b604051611729906122a8565b60006040518083038185875af1925050503d8060008114611766576040519150601f19603f3d011682016040523d82523d6000602084013e61176b565b606091505b505090508061177957600080fd5b6000479050600260009054906101000a900473ffffffffffffffffffffffffffffffffffffffff1673ffffffffffffffffffffffffffffffffffffffff166002826117c4919061239a565b6040516117d0906122a8565b60006040518083038185875af1925050503d806000811461180d576040519150601f19603f3d011682016040523d82523d6000602084013e611812565b606091505b5050809250508161182257600080fd5b600160009054906101000a900473ffffffffffffffffffffffffffffffffffffffff1673ffffffffffffffffffffffffffffffffffffffff16600282611868919061239a565b604051611874906122a8565b60006040518083038185875af1925050503d80600081146118b1576040519150601f19603f3d011682016040523d82523d6000602084013e6118b6565b606091505b505080925050816118c657600080fd5b6001600660016101000a81548160ff0219169083151502179055507fd4e78272079f47a2dd45d8f7092ff3a44f8abfcaeb43c35f8f96e14d610dc8fc60405160405180910390a15050565b60086000600260009054906101000a900473ffffffffffffffffffffffffffffffffffffffff1673ffffffffffffffffffffffffffffffffffffffff1673ffffffffffffffffffffffffffffffffffffffff16815260200190815260200160002060009054906101000a900460ff1660ff1660086000600160009054906101000a900473ffffffffffffffffffffffffffffffffffffffff1673ffffffffffffffffffffffffffffffffffffffff1673ffffffffffffffffffffffffffffffffffffffff16815260200190815260200160002060009054906101000a900460ff1660ff1614611b3f57600660029054906101000a900460ff1615611a2b576000600660026101000a81548160ff0219169083151502179055505b6001600860003373ffffffffffffffffffffffffffffffffffffffff1673ffffffffffffffffffffffffffffffffffffffff16815260200190815260200160002060009054906101000a900460ff1660ff1603611a9057611a8b3361143b565b611b3a565b611b39600160009054906101000a900473ffffffffffffffffffffffffffffffffffffffff1673ffffffffffffffffffffffffffffffffffffffff163373ffffffffffffffffffffffffffffffffffffffff1614611b1057600160009054906101000a900473ffffffffffffffffffffffffffffffffffffffff16611b34565b600260009054906101000a900473ffffffffffffffffffffffffffffffffffffffff165b61143b565b5b611b87565b6001600660026101000a81548160ff0219169083151502179055507fb06dad043ba85c7078ac212a09d8caf0321beaf0505705cf0099cb61384be4cd60405160405180910390a15b565b6000819050919050565b611b9c81611b89565b82525050565b6000602082019050611bb76000830184611b93565b92915050565b60008115159050919050565b611bd281611bbd565b82525050565b6000602082019050611bed6000830184611bc9565b92915050565b600080fd5b600073ffffffffffffffffffffffffffffffffffffffff82169050919050565b6000611c2382611bf8565b9050919050565b611c3381611c18565b8114611c3e57600080fd5b50565b600081359050611c5081611c2a565b92915050565b600060208284031215611c6c57611c6b611bf3565b5b6000611c7a84828501611c41565b91505092915050565b611c8c81611c18565b82525050565b6000602082019050611ca76000830184611c83565b92915050565b600060ff82169050919050565b611cc381611cad565b8114611cce57600080fd5b50565b600081359050611ce081611cba565b92915050565b600060208284031215611cfc57611cfb611bf3565b5b6000611d0a84828501611cd1565b91505092915050565b600082825260208201905092915050565b7f596f7520617265206e6f74206172626974657200000000000000000000000000600082015250565b6000611d5a601383611d13565b9150611d6582611d24565b602082019050919050565b60006020820190508181036000830152611d8981611d4d565b9050919050565b7f506c617965727320646964206e6f74207265616368656420612064697361677260008201527f65656d656e740000000000000000000000000000000000000000000000000000602082015250565b6000611dec602683611d13565b9150611df782611d90565b604082019050919050565b60006020820190508181036000830152611e1b81611ddf565b9050919050565b7f41646472657373206d75737420626520706c6179657220696e2074686973206760008201527f616d650000000000000000000000000000000000000000000000000000000000602082015250565b6000611e7e602383611d13565b9150611e8982611e22565b604082019050919050565b60006020820190508181036000830152611ead81611e71565b9050919050565b7f596f7520617265206e6f7420706172746963697061746f720000000000000000600082015250565b6000611eea601883611d13565b9150611ef582611eb4565b602082019050919050565b60006020820190508181036000830152611f1981611edd565b9050919050565b7f47616d6520686173206e6f74206265656e207374617274656420796574000000600082015250565b6000611f56601d83611d13565b9150611f6182611f20565b602082019050919050565b60006020820190508181036000830152611f8581611f49565b9050919050565b7f4e487b7100000000000000000000000000000000000000000000000000000000600052601160045260246000fd5b6000611fc682611b89565b9150611fd183611b89565b9250828201905080821115611fe957611fe8611f8c565b5b92915050565b7f596f75206861766520616c726561647920766f74656400000000000000000000600082015250565b6000612025601683611d13565b915061203082611fef565b602082019050919050565b6000602082019050818103600083015261205481612018565b9050919050565b7f496e76616c696420706c616365202873686f756c642062652031206f72203229600082015250565b6000612091602083611d13565b915061209c8261205b565b602082019050919050565b600060208201905081810360008301526120c081612084565b9050919050565b7f536c6f7420697320616c72656164792074616b656e0000000000000000000000600082015250565b60006120fd601583611d13565b9150612108826120c7565b602082019050919050565b6000602082019050818103600083015261212c816120f0565b9050919050565b7f596f75722062657420616d6f756e7420697320696e73756666696369656e7400600082015250565b6000612169601f83611d13565b915061217482612133565b602082019050919050565b600060208201905081810360008301526121988161215c565b9050919050565b7f5365636f6e6420706c6179657220686173206e6f74206a6f696e656420796574600082015250565b60006121d5602083611d13565b91506121e08261219f565b602082019050919050565b60006020820190508181036000830152612204816121c8565b9050919050565b7f47616d652068617320616c7265616479206265656e2073746172746564000000600082015250565b6000612241601d83611d13565b915061224c8261220b565b602082019050919050565b6000602082019050818103600083015261227081612234565b9050919050565b600081905092915050565b50565b6000612292600083612277565b915061229d82612282565b600082019050919050565b60006122b382612285565b9150819050919050565b7f596f7520617265206e6f742067616d6520686f73740000000000000000000000600082015250565b60006122f3601583611d13565b91506122fe826122bd565b602082019050919050565b60006020820190508181036000830152612322816122e6565b9050919050565b600061233482611b89565b915061233f83611b89565b925082820261234d81611b89565b9150828204841483151761236457612363611f8c565b5b5092915050565b7f4e487b7100000000000000000000000000000000000000000000000000000000600052601260045260246000fd5b60006123a582611b89565b91506123b083611b89565b9250826123c0576123bf61236b565b5b82820490509291505056fea26469706673582212203019ad704f7b86a8904217cd960107eada83b93c6b32b3c13fb0e3651f39f3f664736f6c63430008180033",
  "linkReferences": {},
  "deployedLinkReferences": {}
}