{
  "_format": "hh-sol-artifact-1",
  "contractName": "Duel",
  "sourceName": "contracts/Duel.sol",
  "abi": [
    {
      "inputs": [
        {
          "internalType": "address",
          "name": "_arbiter",
          "type": "address"
        },
        {
          "internalType": "uint256",
          "name": "_playPeriod",
          "type": "uint256"
        }
      ],
      "stateMutability": "payable",
      "type": "constructor"
    },
    {
      "anonymous": false,
      "inputs": [],
      "name": "Cancel",
      "type": "event"
    },
    {
      "anonymous": false,
      "inputs": [],
      "name": "Disagreement",
      "type": "event"
    },
    {
      "anonymous": false,
      "inputs": [],
      "name": "Draw",
      "type": "event"
    },
    {
      "anonymous": false,
      "inputs": [
        {
          "indexed": false,
          "internalType": "address",
          "name": "player2",
          "type": "address"
        }
      ],
      "name": "Joined",
      "type": "event"
    },
    {
      "anonymous": false,
      "inputs": [],
      "name": "SlotFreed",
      "type": "event"
    },
    {
      "anonymous": false,
      "inputs": [
        {
          "indexed": false,
          "internalType": "address",
          "name": "player2",
          "type": "address"
        }
      ],
      "name": "Start",
      "type": "event"
    },
    {
      "anonymous": false,
      "inputs": [
        {
          "indexed": false,
          "internalType": "address",
          "name": "winner",
          "type": "address"
        }
      ],
      "name": "Victory",
      "type": "event"
    },
    {
      "inputs": [],
      "name": "arbiter",
      "outputs": [
        {
          "internalType": "address",
          "name": "",
          "type": "address"
        }
      ],
      "stateMutability": "view",
      "type": "function"
    },
    {
      "inputs": [],
      "name": "bet",
      "outputs": [
        {
          "internalType": "uint256",
          "name": "",
          "type": "uint256"
        }
      ],
      "stateMutability": "view",
      "type": "function"
    },
    {
      "inputs": [],
      "name": "cancel",
      "outputs": [],
      "stateMutability": "nonpayable",
      "type": "function"
    },
    {
      "inputs": [],
      "name": "closed",
      "outputs": [
        {
          "internalType": "bool",
          "name": "",
          "type": "bool"
        }
      ],
      "stateMutability": "view",
      "type": "function"
    },
    {
      "inputs": [],
      "name": "disagreement",
      "outputs": [
        {
          "internalType": "bool",
          "name": "",
          "type": "bool"
        }
      ],
      "stateMutability": "view",
      "type": "function"
    },
    {
      "inputs": [],
      "name": "excludePlayer2",
      "outputs": [],
      "stateMutability": "nonpayable",
      "type": "function"
    },
    {
      "inputs": [
        {
          "internalType": "address",
          "name": "_winner",
          "type": "address"
        }
      ],
      "name": "forceAppointWinner",
      "outputs": [],
      "stateMutability": "nonpayable",
      "type": "function"
    },
    {
      "inputs": [],
      "name": "forceDraw",
      "outputs": [],
      "stateMutability": "nonpayable",
      "type": "function"
    },
    {
      "inputs": [],
      "name": "host",
      "outputs": [
        {
          "internalType": "address",
          "name": "",
          "type": "address"
        }
      ],
      "stateMutability": "view",
      "type": "function"
    },
    {
      "inputs": [],
      "name": "join",
      "outputs": [],
      "stateMutability": "payable",
      "type": "function"
    },
    {
      "inputs": [],
      "name": "playPeriod",
      "outputs": [
        {
          "internalType": "uint256",
          "name": "",
          "type": "uint256"
        }
      ],
      "stateMutability": "view",
      "type": "function"
    },
    {
      "inputs": [],
      "name": "player2",
      "outputs": [
        {
          "internalType": "address",
          "name": "",
          "type": "address"
        }
      ],
      "stateMutability": "view",
      "type": "function"
    },
    {
      "inputs": [],
      "name": "start",
      "outputs": [],
      "stateMutability": "nonpayable",
      "type": "function"
    },
    {
      "inputs": [],
      "name": "started",
      "outputs": [
        {
          "internalType": "bool",
          "name": "",
          "type": "bool"
        }
      ],
      "stateMutability": "view",
      "type": "function"
    },
    {
      "inputs": [],
      "name": "timeStart",
      "outputs": [
        {
          "internalType": "uint256",
          "name": "",
          "type": "uint256"
        }
      ],
      "stateMutability": "view",
      "type": "function"
    },
    {
      "inputs": [],
      "name": "voteForDraw",
      "outputs": [],
      "stateMutability": "nonpayable",
      "type": "function"
    },
    {
      "inputs": [
        {
          "internalType": "uint8",
          "name": "_place",
          "type": "uint8"
        }
      ],
      "name": "voteForPlace",
      "outputs": [],
      "stateMutability": "nonpayable",
      "type": "function"
    }
  ],
  "bytecode": "0x608060405260056000806101000a81548160ff021916908360ff16021790555060405162002705380380620027058339818101604052810190620000449190620001c7565b600034116200008a576040517f08c379a000000000000000000000000000000000000000000000000000000000815260040162000081906200026f565b60405180910390fd5b81600060016101000a81548173ffffffffffffffffffffffffffffffffffffffff021916908373ffffffffffffffffffffffffffffffffffffffff16021790555033600160006101000a81548173ffffffffffffffffffffffffffffffffffffffff021916908373ffffffffffffffffffffffffffffffffffffffff1602179055503460038190555080600581905550505062000291565b600080fd5b600073ffffffffffffffffffffffffffffffffffffffff82169050919050565b6000620001548262000127565b9050919050565b620001668162000147565b81146200017257600080fd5b50565b60008151905062000186816200015b565b92915050565b6000819050919050565b620001a1816200018c565b8114620001ad57600080fd5b50565b600081519050620001c18162000196565b92915050565b60008060408385031215620001e157620001e062000122565b5b6000620001f18582860162000175565b92505060206200020485828601620001b0565b9150509250929050565b600082825260208201905092915050565b7f596f752073686f756c642070617920796f757220626574000000000000000000600082015250565b6000620002576017836200020e565b915062000264826200021f565b602082019050919050565b600060208201905081810360008301526200028a8162000248565b9050919050565b61246480620002a16000396000f3fe6080604052600436106100fe5760003560e01c80639e0413eb11610095578063de25d2f111610064578063de25d2f114610292578063ea8a1af0146102bd578063f437bc59146102d4578063fd74d294146102ff578063fe25e00a1461032a576100fe565b80639e0413eb14610243578063b688a3631461025a578063bb32becc14610264578063be9a65551461027b576100fe565b8063597e1fb5116100d1578063597e1fb5146101ad57806359a5f12d146101d85780636817f0eb1461020357806371a452211461021a576100fe565b806311610c25146101035780631f2698ab1461012e57806320cfa26714610159578063370e223814610182575b600080fd5b34801561010f57600080fd5b50610118610355565b6040516101259190611c05565b60405180910390f35b34801561013a57600080fd5b5061014361035b565b6040516101509190611c3b565b60405180910390f35b34801561016557600080fd5b50610180600480360381019061017b9190611cb9565b61036e565b005b34801561018e57600080fd5b50610197610541565b6040516101a49190611c05565b60405180910390f35b3480156101b957600080fd5b506101c2610547565b6040516101cf9190611c3b565b60405180910390f35b3480156101e457600080fd5b506101ed61055a565b6040516101fa9190611cf5565b60405180910390f35b34801561020f57600080fd5b50610218610580565b005b34801561022657600080fd5b50610241600480360381019061023c9190611d49565b6107cb565b005b34801561024f57600080fd5b50610258610ad8565b005b610262610bc1565b005b34801561027057600080fd5b50610279610d11565b005b34801561028757600080fd5b50610290610fe5565b005b34801561029e57600080fd5b506102a7611183565b6040516102b49190611c3b565b60405180910390f35b3480156102c957600080fd5b506102d2611196565b005b3480156102e057600080fd5b506102e961144c565b6040516102f69190611cf5565b60405180910390f35b34801561030b57600080fd5b50610314611472565b6040516103219190611c05565b60405180910390f35b34801561033657600080fd5b5061033f611478565b60405161034c9190611cf5565b60405180910390f35b60035481565b600660009054906101000a900460ff1681565b600060019054906101000a900473ffffffffffffffffffffffffffffffffffffffff1673ffffffffffffffffffffffffffffffffffffffff163373ffffffffffffffffffffffffffffffffffffffff16146103fe576040517f08c379a00000000000000000000000000000000000000000000000000000000081526004016103f590611dd3565b60405180910390fd5b600660029054906101000a900460ff1661044d576040517f08c379a000000000000000000000000000000000000000000000000000000000815260040161044490611e65565b60405180910390fd5b8073ffffffffffffffffffffffffffffffffffffffff16600160009054906101000a900473ffffffffffffffffffffffffffffffffffffffff1673ffffffffffffffffffffffffffffffffffffffff1614806104f657508073ffffffffffffffffffffffffffffffffffffffff16600260009054906101000a900473ffffffffffffffffffffffffffffffffffffffff1673ffffffffffffffffffffffffffffffffffffffff16145b610535576040517f08c379a000000000000000000000000000000000000000000000000000000000815260040161052c90611ef7565b60405180910390fd5b61053e8161149e565b50565b60055481565b600660019054906101000a900460ff1681565b600260009054906101000a900473ffffffffffffffffffffffffffffffffffffffff1681565b600160009054906101000a900473ffffffffffffffffffffffffffffffffffffffff1673ffffffffffffffffffffffffffffffffffffffff163373ffffffffffffffffffffffffffffffffffffffff1614806106295750600260009054906101000a900473ffffffffffffffffffffffffffffffffffffffff1673ffffffffffffffffffffffffffffffffffffffff163373ffffffffffffffffffffffffffffffffffffffff16145b610668576040517f08c379a000000000000000000000000000000000000000000000000000000000815260040161065f90611f63565b60405180910390fd5b600660009054906101000a900460ff166106b7576040517f08c379a00000000000000000000000000000000000000000000000000000000081526004016106ae90611fcf565b60405180910390fd5b6005546004546106c7919061201e565b4210156107c057600760003373ffffffffffffffffffffffffffffffffffffffff1673ffffffffffffffffffffffffffffffffffffffff16815260200190815260200160002060009054906101000a900460ff161561075b576040517f08c379a00000000000000000000000000000000000000000000000000000000081526004016107529061209e565b60405180910390fd5b6001600760003373ffffffffffffffffffffffffffffffffffffffff1673ffffffffffffffffffffffffffffffffffffffff16815260200190815260200160002060006101000a81548160ff0219169083151502179055506107bb611628565b6107c9565b6107c861171e565b5b565b600160009054906101000a900473ffffffffffffffffffffffffffffffffffffffff1673ffffffffffffffffffffffffffffffffffffffff163373ffffffffffffffffffffffffffffffffffffffff1614806108745750600260009054906101000a900473ffffffffffffffffffffffffffffffffffffffff1673ffffffffffffffffffffffffffffffffffffffff163373ffffffffffffffffffffffffffffffffffffffff16145b6108b3576040517f08c379a00000000000000000000000000000000000000000000000000000000081526004016108aa90611f63565b60405180910390fd5b600660009054906101000a900460ff16610902576040517f08c379a00000000000000000000000000000000000000000000000000000000081526004016108f990611fcf565b60405180910390fd5b60018160ff161480610917575060028160ff16145b610956576040517f08c379a000000000000000000000000000000000000000000000000000000000815260040161094d9061210a565b60405180910390fd5b80600860003373ffffffffffffffffffffffffffffffffffffffff1673ffffffffffffffffffffffffffffffffffffffff16815260200190815260200160002060006101000a81548160ff021916908360ff1602179055506005546004546109be919061201e565b421015610acc57600060086000600160009054906101000a900473ffffffffffffffffffffffffffffffffffffffff1673ffffffffffffffffffffffffffffffffffffffff1673ffffffffffffffffffffffffffffffffffffffff16815260200190815260200160002060009054906101000a900460ff1660ff1614158015610ab95750600060086000600260009054906101000a900473ffffffffffffffffffffffffffffffffffffffff1673ffffffffffffffffffffffffffffffffffffffff1673ffffffffffffffffffffffffffffffffffffffff16815260200190815260200160002060009054906101000a900460ff1660ff1614155b15610ac757610ac6611974565b5b610ad5565b610ad4611974565b5b50565b600060019054906101000a900473ffffffffffffffffffffffffffffffffffffffff1673ffffffffffffffffffffffffffffffffffffffff163373ffffffffffffffffffffffffffffffffffffffff1614610b68576040517f08c379a0000000000000000000000000000000000000000000000000000000008152600401610b5f90611dd3565b60405180910390fd5b600660029054906101000a900460ff16610bb7576040517f08c379a0000000000000000000000000000000000000000000000000000000008152600401610bae90611e65565b60405180910390fd5b610bbf61171e565b565b600073ffffffffffffffffffffffffffffffffffffffff16600260009054906101000a900473ffffffffffffffffffffffffffffffffffffffff1673ffffffffffffffffffffffffffffffffffffffff1614610c52576040517f08c379a0000000000000000000000000000000000000000000000000000000008152600401610c4990612176565b60405180910390fd5b600354341015610c97576040517f08c379a0000000000000000000000000000000000000000000000000000000008152600401610c8e906121e2565b60405180910390fd5b33600260006101000a81548173ffffffffffffffffffffffffffffffffffffffff021916908373ffffffffffffffffffffffffffffffffffffffff1602179055507f7073afa60b48e833a1a66ebb442bc8e0d19e9f3cc05f34bdcd1da22c8d87f27533604051610d079190611cf5565b60405180910390a1565b600160009054906101000a900473ffffffffffffffffffffffffffffffffffffffff1673ffffffffffffffffffffffffffffffffffffffff163373ffffffffffffffffffffffffffffffffffffffff161480610dba5750600260009054906101000a900473ffffffffffffffffffffffffffffffffffffffff1673ffffffffffffffffffffffffffffffffffffffff163373ffffffffffffffffffffffffffffffffffffffff16145b610df9576040517f08c379a0000000000000000000000000000000000000000000000000000000008152600401610df090611f63565b60405180910390fd5b600073ffffffffffffffffffffffffffffffffffffffff16600260009054906101000a900473ffffffffffffffffffffffffffffffffffffffff1673ffffffffffffffffffffffffffffffffffffffff1603610e8a576040517f08c379a0000000000000000000000000000000000000000000000000000000008152600401610e819061224e565b60405180910390fd5b600660009054906101000a900460ff1615610eda576040517f08c379a0000000000000000000000000000000000000000000000000000000008152600401610ed1906122ba565b60405180910390fd5b6000600260009054906101000a900473ffffffffffffffffffffffffffffffffffffffff1673ffffffffffffffffffffffffffffffffffffffff16600354604051610f249061230b565b60006040518083038185875af1925050503d8060008114610f61576040519150601f19603f3d011682016040523d82523d6000602084013e610f66565b606091505b5050905080610f7457600080fd5b6000600260006101000a81548173ffffffffffffffffffffffffffffffffffffffff021916908373ffffffffffffffffffffffffffffffffffffffff1602179055507fcd8b3569f24b8160f382e15b4b86db7c5690288aed5a0e3beadad86ff1dc660560405160405180910390a150565b600160009054906101000a900473ffffffffffffffffffffffffffffffffffffffff1673ffffffffffffffffffffffffffffffffffffffff163373ffffffffffffffffffffffffffffffffffffffff1614611075576040517f08c379a000000000000000000000000000000000000000000000000000000000815260040161106c9061236c565b60405180910390fd5b600073ffffffffffffffffffffffffffffffffffffffff16600260009054906101000a900473ffffffffffffffffffffffffffffffffffffffff1673ffffffffffffffffffffffffffffffffffffffff1603611106576040517f08c379a00000000000000000000000000000000000000000000000000000000081526004016110fd9061224e565b60405180910390fd5b6001600660006101000a81548160ff021916908315150217905550426004819055507f84d0447ca38875fa61115673259a210915bc1dd53a3c112d6f0790f15956a965600260009054906101000a900473ffffffffffffffffffffffffffffffffffffffff166040516111799190611cf5565b60405180910390a1565b600660029054906101000a900460ff1681565b600160009054906101000a900473ffffffffffffffffffffffffffffffffffffffff1673ffffffffffffffffffffffffffffffffffffffff163373ffffffffffffffffffffffffffffffffffffffff1614611226576040517f08c379a000000000000000000000000000000000000000000000000000000000815260040161121d9061236c565b60405180910390fd5b600660009054906101000a900460ff1615611276576040517f08c379a000000000000000000000000000000000000000000000000000000000815260040161126d906122ba565b60405180910390fd5b600073ffffffffffffffffffffffffffffffffffffffff16600260009054906101000a900473ffffffffffffffffffffffffffffffffffffffff1673ffffffffffffffffffffffffffffffffffffffff1614611368576000600260009054906101000a900473ffffffffffffffffffffffffffffffffffffffff1673ffffffffffffffffffffffffffffffffffffffff166003546040516113169061230b565b60006040518083038185875af1925050503d8060008114611353576040519150601f19603f3d011682016040523d82523d6000602084013e611358565b606091505b505090508061136657600080fd5b505b6000600160009054906101000a900473ffffffffffffffffffffffffffffffffffffffff1673ffffffffffffffffffffffffffffffffffffffff166003546040516113b29061230b565b60006040518083038185875af1925050503d80600081146113ef576040519150601f19603f3d011682016040523d82523d6000602084013e6113f4565b606091505b505090508061140257600080fd5b6001600660016101000a81548160ff0219169083151502179055507f4aa8e773783771612c47fa512db50b9316d0863fd83c45829adfe92833d7d68b60405160405180910390a150565b600160009054906101000a900473ffffffffffffffffffffffffffffffffffffffff1681565b60045481565b600060019054906101000a900473ffffffffffffffffffffffffffffffffffffffff1681565b60008060019054906101000a900473ffffffffffffffffffffffffffffffffffffffff1673ffffffffffffffffffffffffffffffffffffffff16606460008054906101000a900460ff1660ff16476114f6919061238c565b61150091906123fd565b60405161150c9061230b565b60006040518083038185875af1925050503d8060008114611549576040519150601f19603f3d011682016040523d82523d6000602084013e61154e565b606091505b505090508061155c57600080fd5b8173ffffffffffffffffffffffffffffffffffffffff16476040516115809061230b565b60006040518083038185875af1925050503d80600081146115bd576040519150601f19603f3d011682016040523d82523d6000602084013e6115c2565b606091505b505080915050806115d257600080fd5b6001600660016101000a81548160ff0219169083151502179055507f9d3f42cccda3cee7200a07d96935a6631686cd4882fc57aa5868b0f15846946c8260405161161c9190611cf5565b60405180910390a15050565b60076000600160009054906101000a900473ffffffffffffffffffffffffffffffffffffffff1673ffffffffffffffffffffffffffffffffffffffff1673ffffffffffffffffffffffffffffffffffffffff16815260200190815260200160002060009054906101000a900460ff16801561170e575060076000600260009054906101000a900473ffffffffffffffffffffffffffffffffffffffff1673ffffffffffffffffffffffffffffffffffffffff1673ffffffffffffffffffffffffffffffffffffffff16815260200190815260200160002060009054906101000a900460ff165b1561171c5761171b61171e565b5b565b60008060019054906101000a900473ffffffffffffffffffffffffffffffffffffffff1673ffffffffffffffffffffffffffffffffffffffff16606460008054906101000a900460ff1660ff1647611776919061238c565b61178091906123fd565b60405161178c9061230b565b60006040518083038185875af1925050503d80600081146117c9576040519150601f19603f3d011682016040523d82523d6000602084013e6117ce565b606091505b50509050806117dc57600080fd5b6000479050600260009054906101000a900473ffffffffffffffffffffffffffffffffffffffff1673ffffffffffffffffffffffffffffffffffffffff1660028261182791906123fd565b6040516118339061230b565b60006040518083038185875af1925050503d8060008114611870576040519150601f19603f3d011682016040523d82523d6000602084013e611875565b606091505b5050809250508161188557600080fd5b600160009054906101000a900473ffffffffffffffffffffffffffffffffffffffff1673ffffffffffffffffffffffffffffffffffffffff166002826118cb91906123fd565b6040516118d79061230b565b60006040518083038185875af1925050503d8060008114611914576040519150601f19603f3d011682016040523d82523d6000602084013e611919565b606091505b5050809250508161192957600080fd5b6001600660016101000a81548160ff0219169083151502179055507fd4e78272079f47a2dd45d8f7092ff3a44f8abfcaeb43c35f8f96e14d610dc8fc60405160405180910390a15050565b60086000600260009054906101000a900473ffffffffffffffffffffffffffffffffffffffff1673ffffffffffffffffffffffffffffffffffffffff1673ffffffffffffffffffffffffffffffffffffffff16815260200190815260200160002060009054906101000a900460ff1660ff1660086000600160009054906101000a900473ffffffffffffffffffffffffffffffffffffffff1673ffffffffffffffffffffffffffffffffffffffff1673ffffffffffffffffffffffffffffffffffffffff16815260200190815260200160002060009054906101000a900460ff1660ff1614611ba257600660029054906101000a900460ff1615611a8e576000600660026101000a81548160ff0219169083151502179055505b6001600860003373ffffffffffffffffffffffffffffffffffffffff1673ffffffffffffffffffffffffffffffffffffffff16815260200190815260200160002060009054906101000a900460ff1660ff1603611af357611aee3361149e565b611b9d565b611b9c600160009054906101000a900473ffffffffffffffffffffffffffffffffffffffff1673ffffffffffffffffffffffffffffffffffffffff163373ffffffffffffffffffffffffffffffffffffffff1614611b7357600160009054906101000a900473ffffffffffffffffffffffffffffffffffffffff16611b97565b600260009054906101000a900473ffffffffffffffffffffffffffffffffffffffff165b61149e565b5b611bea565b6001600660026101000a81548160ff0219169083151502179055507fb06dad043ba85c7078ac212a09d8caf0321beaf0505705cf0099cb61384be4cd60405160405180910390a15b565b6000819050919050565b611bff81611bec565b82525050565b6000602082019050611c1a6000830184611bf6565b92915050565b60008115159050919050565b611c3581611c20565b82525050565b6000602082019050611c506000830184611c2c565b92915050565b600080fd5b600073ffffffffffffffffffffffffffffffffffffffff82169050919050565b6000611c8682611c5b565b9050919050565b611c9681611c7b565b8114611ca157600080fd5b50565b600081359050611cb381611c8d565b92915050565b600060208284031215611ccf57611cce611c56565b5b6000611cdd84828501611ca4565b91505092915050565b611cef81611c7b565b82525050565b6000602082019050611d0a6000830184611ce6565b92915050565b600060ff82169050919050565b611d2681611d10565b8114611d3157600080fd5b50565b600081359050611d4381611d1d565b92915050565b600060208284031215611d5f57611d5e611c56565b5b6000611d6d84828501611d34565b91505092915050565b600082825260208201905092915050565b7f596f7520617265206e6f74206172626974657200000000000000000000000000600082015250565b6000611dbd601383611d76565b9150611dc882611d87565b602082019050919050565b60006020820190508181036000830152611dec81611db0565b9050919050565b7f506c617965727320646964206e6f74207265616368656420612064697361677260008201527f65656d656e740000000000000000000000000000000000000000000000000000602082015250565b6000611e4f602683611d76565b9150611e5a82611df3565b604082019050919050565b60006020820190508181036000830152611e7e81611e42565b9050919050565b7f41646472657373206d75737420626520706c6179657220696e2074686973206760008201527f616d650000000000000000000000000000000000000000000000000000000000602082015250565b6000611ee1602383611d76565b9150611eec82611e85565b604082019050919050565b60006020820190508181036000830152611f1081611ed4565b9050919050565b7f596f7520617265206e6f7420706172746963697061746f720000000000000000600082015250565b6000611f4d601883611d76565b9150611f5882611f17565b602082019050919050565b60006020820190508181036000830152611f7c81611f40565b9050919050565b7f47616d6520686173206e6f74206265656e207374617274656420796574000000600082015250565b6000611fb9601d83611d76565b9150611fc482611f83565b602082019050919050565b60006020820190508181036000830152611fe881611fac565b9050919050565b7f4e487b7100000000000000000000000000000000000000000000000000000000600052601160045260246000fd5b600061202982611bec565b915061203483611bec565b925082820190508082111561204c5761204b611fef565b5b92915050565b7f596f75206861766520616c726561647920766f74656400000000000000000000600082015250565b6000612088601683611d76565b915061209382612052565b602082019050919050565b600060208201905081810360008301526120b78161207b565b9050919050565b7f496e76616c696420706c616365202873686f756c642062652031206f72203229600082015250565b60006120f4602083611d76565b91506120ff826120be565b602082019050919050565b60006020820190508181036000830152612123816120e7565b9050919050565b7f536c6f7420697320616c72656164792074616b656e0000000000000000000000600082015250565b6000612160601583611d76565b915061216b8261212a565b602082019050919050565b6000602082019050818103600083015261218f81612153565b9050919050565b7f596f75722062657420616d6f756e7420697320696e73756666696369656e7400600082015250565b60006121cc601f83611d76565b91506121d782612196565b602082019050919050565b600060208201905081810360008301526121fb816121bf565b9050919050565b7f5365636f6e6420706c6179657220686173206e6f74206a6f696e656420796574600082015250565b6000612238602083611d76565b915061224382612202565b602082019050919050565b600060208201905081810360008301526122678161222b565b9050919050565b7f47616d652068617320616c7265616479206265656e2073746172746564000000600082015250565b60006122a4601d83611d76565b91506122af8261226e565b602082019050919050565b600060208201905081810360008301526122d381612297565b9050919050565b600081905092915050565b50565b60006122f56000836122da565b9150612300826122e5565b600082019050919050565b6000612316826122e8565b9150819050919050565b7f596f7520617265206e6f742067616d6520686f73740000000000000000000000600082015250565b6000612356601583611d76565b915061236182612320565b602082019050919050565b6000602082019050818103600083015261238581612349565b9050919050565b600061239782611bec565b91506123a283611bec565b92508282026123b081611bec565b915082820484148315176123c7576123c6611fef565b5b5092915050565b7f4e487b7100000000000000000000000000000000000000000000000000000000600052601260045260246000fd5b600061240882611bec565b915061241383611bec565b925082612423576124226123ce565b5b82820490509291505056fea264697066735822122047b4cfe8401e662e76cf15f1c9ccf7c914131ecfd5e0eadf588cc8455e67aa1764736f6c63430008180033",
  "linkReferences": {},
  "deployedLinkReferences": {}
}